{
  "_format": "hh-sol-artifact-1",
  "contractName": "Governance",
  "sourceName": "contracts/GovContract.sol",
  "abi": [
    {
      "inputs": [
        {
          "internalType": "contract IERC20",
          "name": "_CRB",
          "type": "address"
        },
        {
          "internalType": "contract IERC20",
          "name": "_TGV",
          "type": "address"
        }
      ],
      "stateMutability": "nonpayable",
      "type": "constructor"
    },
    {
      "inputs": [],
      "name": "CRB",
      "outputs": [
        {
          "internalType": "contract IERC20",
          "name": "",
          "type": "address"
        }
      ],
      "stateMutability": "view",
      "type": "function"
    },
    {
      "inputs": [],
      "name": "TGV",
      "outputs": [
        {
          "internalType": "contract IERC20",
          "name": "",
          "type": "address"
        }
      ],
      "stateMutability": "view",
      "type": "function"
    }
  ],
  "bytecode": "0x608060405234801561001057600080fd5b506040516102da3803806102da833981810160405281019061003291906100cf565b816000806101000a81548173ffffffffffffffffffffffffffffffffffffffff021916908373ffffffffffffffffffffffffffffffffffffffff16021790555080600160006101000a81548173ffffffffffffffffffffffffffffffffffffffff021916908373ffffffffffffffffffffffffffffffffffffffff1602179055505050610166565b6000815190506100c98161014f565b92915050565b600080604083850312156100e257600080fd5b60006100f0858286016100ba565b9250506020610101858286016100ba565b9150509250929050565b60006101168261012f565b9050919050565b60006101288261010b565b9050919050565b600073ffffffffffffffffffffffffffffffffffffffff82169050919050565b6101588161011d565b811461016357600080fd5b50565b610165806101756000396000f3fe608060405234801561001057600080fd5b50600436106100365760003560e01c806370e705861461003b578063eabd082d14610059575b600080fd5b610043610077565b60405161005091906100d0565b60405180910390f35b61006161009d565b60405161006e91906100d0565b60405180910390f35b600160009054906101000a900473ffffffffffffffffffffffffffffffffffffffff1681565b60008054906101000a900473ffffffffffffffffffffffffffffffffffffffff1681565b6100ca8161010b565b82525050565b60006020820190506100e560008301846100c1565b92915050565b600073ffffffffffffffffffffffffffffffffffffffff82169050919050565b60006101168261011d565b9050919050565b6000610128826100eb565b905091905056fea264697066735822122008f12d1c1c5770d9936c40d36a8e8f9dc1bd269c9fa88b174f0b0e14c378d63564736f6c63430008000033",
  "linkReferences": {},
  "deployedLinkReferences": {}
}