{
  "_format": "hh-sol-artifact-1",
  "contractName": "Governance",
  "sourceName": "contracts/GovContract.sol",
  "abi": [
    {
      "inputs": [
        {
          "internalType": "contract IERC20",
          "name": "_CRB",
          "type": "address"
        },
        {
          "internalType": "contract IERC20",
          "name": "_TGV",
          "type": "address"
        }
      ],
      "stateMutability": "nonpayable",
      "type": "constructor"
    },
    {
      "anonymous": false,
      "inputs": [
        {
          "indexed": true,
          "internalType": "int64",
          "name": "_issueId",
          "type": "int64"
        },
        {
          "indexed": true,
          "internalType": "address",
          "name": "_author",
          "type": "address"
        },
        {
          "indexed": false,
          "internalType": "int16",
          "name": "_yae",
          "type": "int16"
        },
        {
          "indexed": false,
          "internalType": "int16",
          "name": "_nae",
          "type": "int16"
        }
      ],
      "name": "IssueClosed",
      "type": "event"
    },
    {
      "anonymous": false,
      "inputs": [
        {
          "indexed": true,
          "internalType": "int64",
          "name": "_issueId",
          "type": "int64"
        },
        {
          "indexed": true,
          "internalType": "address",
          "name": "_author",
          "type": "address"
        },
        {
          "indexed": false,
          "internalType": "int256",
          "name": "deadline",
          "type": "int256"
        }
      ],
      "name": "IssueCreated",
      "type": "event"
    },
    {
      "anonymous": false,
      "inputs": [
        {
          "indexed": true,
          "internalType": "address",
          "name": "_voter",
          "type": "address"
        },
        {
          "indexed": true,
          "internalType": "int64",
          "name": "_issueId",
          "type": "int64"
        },
        {
          "indexed": false,
          "internalType": "bool",
          "name": "_voteIsYae",
          "type": "bool"
        }
      ],
      "name": "VoteRecieved",
      "type": "event"
    },
    {
      "inputs": [],
      "name": "CRB",
      "outputs": [
        {
          "internalType": "contract IERC20",
          "name": "",
          "type": "address"
        }
      ],
      "stateMutability": "view",
      "type": "function"
    },
    {
      "inputs": [],
      "name": "TGV",
      "outputs": [
        {
          "internalType": "contract IERC20",
          "name": "",
          "type": "address"
        }
      ],
      "stateMutability": "view",
      "type": "function"
    },
    {
      "inputs": [
        {
          "internalType": "string",
          "name": "_issueTitle",
          "type": "string"
        },
        {
          "internalType": "string",
          "name": "_issueText",
          "type": "string"
        },
        {
          "internalType": "int256",
          "name": "_deadline",
          "type": "int256"
        }
      ],
      "name": "createIssue",
      "outputs": [
        {
          "internalType": "int16",
          "name": "issueId",
          "type": "int16"
        }
      ],
      "stateMutability": "nonpayable",
      "type": "function"
    },
    {
      "inputs": [],
      "name": "custodianMode",
      "outputs": [
        {
          "internalType": "bool",
          "name": "",
          "type": "bool"
        }
      ],
      "stateMutability": "view",
      "type": "function"
    },
    {
      "inputs": [
        {
          "internalType": "int64",
          "name": "",
          "type": "int64"
        }
      ],
      "name": "issues",
      "outputs": [
        {
          "internalType": "int16",
          "name": "yae",
          "type": "int16"
        },
        {
          "internalType": "int16",
          "name": "nae",
          "type": "int16"
        },
        {
          "internalType": "string",
          "name": "issueTitle",
          "type": "string"
        },
        {
          "internalType": "string",
          "name": "issueText",
          "type": "string"
        },
        {
          "internalType": "address",
          "name": "author",
          "type": "address"
        }
      ],
      "stateMutability": "view",
      "type": "function"
    },
    {
      "inputs": [],
      "name": "numIssues",
      "outputs": [
        {
          "internalType": "int64",
          "name": "",
          "type": "int64"
        }
      ],
      "stateMutability": "view",
      "type": "function"
    },
    {
      "inputs": [
        {
          "internalType": "int64",
          "name": "_issueId",
          "type": "int64"
        }
      ],
      "name": "redeemBond",
      "outputs": [],
      "stateMutability": "nonpayable",
      "type": "function"
    },
    {
      "inputs": [
        {
          "internalType": "int16",
          "name": "_issueId",
          "type": "int16"
        },
        {
          "internalType": "bool",
          "name": "_voteIsYae",
          "type": "bool"
        }
      ],
      "name": "submitVote",
      "outputs": [],
      "stateMutability": "nonpayable",
      "type": "function"
    }
  ],
  "bytecode": "0x608060405234801561001057600080fd5b50604051610b0b380380610b0b833981810160405281019061003291906100fc565b816000806101000a81548173ffffffffffffffffffffffffffffffffffffffff021916908373ffffffffffffffffffffffffffffffffffffffff16021790555080600160006101000a81548173ffffffffffffffffffffffffffffffffffffffff021916908373ffffffffffffffffffffffffffffffffffffffff1602179055506000600160146101000a81548167ffffffffffffffff021916908360070b67ffffffffffffffff1602179055505050610193565b6000815190506100f68161017c565b92915050565b6000806040838503121561010f57600080fd5b600061011d858286016100e7565b925050602061012e858286016100e7565b9150509250929050565b60006101438261015c565b9050919050565b600061015582610138565b9050919050565b600073ffffffffffffffffffffffffffffffffffffffff82169050919050565b6101858161014a565b811461019057600080fd5b50565b610969806101a26000396000f3fe608060405234801561001057600080fd5b50600436106100885760003560e01c8063902c995e1161005b578063902c995e1461012d578063c18dac4e14610149578063e377a2a314610167578063eabd082d1461018357610088565b806315d23fd91461008d578063417f3ca7146100ab5780634b69fd99146100df57806370e705861461010f575b600080fd5b6100956101a1565b6040516100a291906106a3565b60405180910390f35b6100c560048036038101906100c0919061052d565b6101b4565b6040516100d69594939291906106f4565b60405180910390f35b6100f960048036038101906100f49190610556565b610334565b60405161010691906106d9565b60405180910390f35b61011761033f565b60405161012491906106be565b60405180910390f35b6101476004803603810190610142919061052d565b610365565b005b610151610418565b60405161015e9190610755565b60405180910390f35b610181600480360381019061017c91906104f1565b61042b565b005b61018b61042f565b60405161019891906106be565b60405180910390f35b6001601c9054906101000a900460ff1681565b60026020528060005260406000206000915090508060000160009054906101000a900460010b908060000160029054906101000a900460010b908060010180546101fd90610865565b80601f016020809104026020016040519081016040528092919081815260200182805461022990610865565b80156102765780601f1061024b57610100808354040283529160200191610276565b820191906000526020600020905b81548152906001019060200180831161025957829003601f168201915b50505050509080600201805461028b90610865565b80601f01602080910402602001604051908101604052809291908181526020018280546102b790610865565b80156103045780601f106102d957610100808354040283529160200191610304565b820191906000526020600020905b8154815290600101906020018083116102e757829003601f168201915b5050505050908060030160009054906101000a900473ffffffffffffffffffffffffffffffffffffffff16905085565b600095945050505050565b600160009054906101000a900473ffffffffffffffffffffffffffffffffffffffff1681565b6000600260008360070b60070b815260200190815260200160002090508060030160009054906101000a900473ffffffffffffffffffffffffffffffffffffffff1673ffffffffffffffffffffffffffffffffffffffff163373ffffffffffffffffffffffffffffffffffffffff1614610414576040517f08c379a000000000000000000000000000000000000000000000000000000000815260040161040b90610770565b60405180910390fd5b5050565b600160149054906101000a900460070b81565b5050565b60008054906101000a900473ffffffffffffffffffffffffffffffffffffffff1681565b600081359050610462816108d7565b92915050565b600081359050610477816108ee565b92915050565b60008135905061048c81610905565b92915050565b6000813590506104a18161091c565b92915050565b60008083601f8401126104b957600080fd5b8235905067ffffffffffffffff8111156104d257600080fd5b6020830191508360018202830111156104ea57600080fd5b9250929050565b6000806040838503121561050457600080fd5b600061051285828601610468565b925050602061052385828601610453565b9150509250929050565b60006020828403121561053f57600080fd5b600061054d84828501610492565b91505092915050565b60008060008060006060868803121561056e57600080fd5b600086013567ffffffffffffffff81111561058857600080fd5b610594888289016104a7565b9550955050602086013567ffffffffffffffff8111156105b357600080fd5b6105bf888289016104a7565b935093505060406105d28882890161047d565b9150509295509295909350565b6105e8816107ac565b82525050565b6105f7816107be565b82525050565b6106068161080e565b82525050565b610615816107ca565b82525050565b610624816107e1565b82525050565b600061063582610790565b61063f818561079b565b935061064f818560208601610832565b610658816108c6565b840191505092915050565b6000610670600a8361079b565b91507f4e4f5420415554484f52000000000000000000000000000000000000000000006000830152602082019050919050565b60006020820190506106b860008301846105ee565b92915050565b60006020820190506106d360008301846105fd565b92915050565b60006020820190506106ee600083018461060c565b92915050565b600060a082019050610709600083018861060c565b610716602083018761060c565b8181036040830152610728818661062a565b9050818103606083015261073c818561062a565b905061074b60808301846105df565b9695505050505050565b600060208201905061076a600083018461061b565b92915050565b6000602082019050818103600083015261078981610663565b9050919050565b600081519050919050565b600082825260208201905092915050565b60006107b7826107ee565b9050919050565b60008115159050919050565b60008160010b9050919050565b6000819050919050565b60008160070b9050919050565b600073ffffffffffffffffffffffffffffffffffffffff82169050919050565b600061081982610820565b9050919050565b600061082b826107ee565b9050919050565b60005b83811015610850578082015181840152602081019050610835565b8381111561085f576000848401525b50505050565b6000600282049050600182168061087d57607f821691505b6020821081141561089157610890610897565b5b50919050565b7f4e487b7100000000000000000000000000000000000000000000000000000000600052602260045260246000fd5b6000601f19601f8301169050919050565b6108e0816107be565b81146108eb57600080fd5b50565b6108f7816107ca565b811461090257600080fd5b50565b61090e816107d7565b811461091957600080fd5b50565b610925816107e1565b811461093057600080fd5b5056fea264697066735822122016f57fff68697b6b19797090cea01a76e576e54215d951c3e59a4ed3a1c25e0164736f6c63430008000033",
  "linkReferences": {},
  "deployedLinkReferences": {}
}