{
  "_format": "hh-sol-artifact-1",
  "contractName": "Governance",
  "sourceName": "contracts/GovContract.sol",
  "abi": [
    {
      "inputs": [
        {
          "internalType": "contract IERC20",
          "name": "_CRB",
          "type": "address"
        },
        {
          "internalType": "contract IERC20",
          "name": "_TGV",
          "type": "address"
        }
      ],
      "stateMutability": "nonpayable",
      "type": "constructor"
    },
    {
      "anonymous": false,
      "inputs": [
        {
          "indexed": true,
          "internalType": "int64",
          "name": "_issueId",
          "type": "int64"
        },
        {
          "indexed": true,
          "internalType": "address",
          "name": "_author",
          "type": "address"
        },
        {
          "indexed": false,
          "internalType": "int16",
          "name": "_yae",
          "type": "int16"
        },
        {
          "indexed": false,
          "internalType": "int16",
          "name": "_nae",
          "type": "int16"
        }
      ],
      "name": "IssueClosed",
      "type": "event"
    },
    {
      "anonymous": false,
      "inputs": [
        {
          "indexed": true,
          "internalType": "int64",
          "name": "_issueId",
          "type": "int64"
        },
        {
          "indexed": true,
          "internalType": "address",
          "name": "_author",
          "type": "address"
        },
        {
          "indexed": false,
          "internalType": "int256",
          "name": "deadline",
          "type": "int256"
        }
      ],
      "name": "IssueCreated",
      "type": "event"
    },
    {
      "anonymous": false,
      "inputs": [
        {
          "indexed": true,
          "internalType": "address",
          "name": "_voter",
          "type": "address"
        },
        {
          "indexed": true,
          "internalType": "int64",
          "name": "_issueId",
          "type": "int64"
        },
        {
          "indexed": false,
          "internalType": "bool",
          "name": "_voteIsYae",
          "type": "bool"
        }
      ],
      "name": "VoteRecieved",
      "type": "event"
    },
    {
      "inputs": [],
      "name": "CRB",
      "outputs": [
        {
          "internalType": "contract IERC20",
          "name": "",
          "type": "address"
        }
      ],
      "stateMutability": "view",
      "type": "function"
    },
    {
      "inputs": [],
      "name": "TGV",
      "outputs": [
        {
          "internalType": "contract IERC20",
          "name": "",
          "type": "address"
        }
      ],
      "stateMutability": "view",
      "type": "function"
    },
    {
      "inputs": [
        {
          "internalType": "string",
          "name": "_issueTitle",
          "type": "string"
        },
        {
          "internalType": "string",
          "name": "_issueText",
          "type": "string"
        },
        {
          "internalType": "int256",
          "name": "_deadline",
          "type": "int256"
        }
      ],
      "name": "createIssue",
      "outputs": [
        {
          "internalType": "int16",
          "name": "issueId",
          "type": "int16"
        }
      ],
      "stateMutability": "nonpayable",
      "type": "function"
    },
    {
      "inputs": [],
      "name": "custodianMode",
      "outputs": [
        {
          "internalType": "bool",
          "name": "",
          "type": "bool"
        }
      ],
      "stateMutability": "view",
      "type": "function"
    },
    {
      "inputs": [
        {
          "internalType": "int64",
          "name": "",
          "type": "int64"
        }
      ],
      "name": "issues",
      "outputs": [
        {
          "internalType": "int16",
          "name": "yae",
          "type": "int16"
        },
        {
          "internalType": "int16",
          "name": "nae",
          "type": "int16"
        },
        {
          "internalType": "string",
          "name": "issueTitle",
          "type": "string"
        },
        {
          "internalType": "string",
          "name": "issueText",
          "type": "string"
        },
        {
          "internalType": "address",
          "name": "author",
          "type": "address"
        }
      ],
      "stateMutability": "view",
      "type": "function"
    },
    {
      "inputs": [],
      "name": "numIssues",
      "outputs": [
        {
          "internalType": "int64",
          "name": "",
          "type": "int64"
        }
      ],
      "stateMutability": "view",
      "type": "function"
    },
    {
      "inputs": [
        {
          "internalType": "int64",
          "name": "_issueId",
          "type": "int64"
        }
      ],
      "name": "redeemBond",
      "outputs": [],
      "stateMutability": "nonpayable",
      "type": "function"
    },
    {
      "inputs": [
        {
          "internalType": "int16",
          "name": "_issueId",
          "type": "int16"
        },
        {
          "internalType": "bool",
          "name": "_voteIsYae",
          "type": "bool"
        }
      ],
      "name": "submitVote",
      "outputs": [],
      "stateMutability": "nonpayable",
      "type": "function"
    }
  ],
  "bytecode": "0x608060405234801561001057600080fd5b50604051610b17380380610b17833981810160405281019061003291906100fc565b816000806101000a81548173ffffffffffffffffffffffffffffffffffffffff021916908373ffffffffffffffffffffffffffffffffffffffff16021790555080600160006101000a81548173ffffffffffffffffffffffffffffffffffffffff021916908373ffffffffffffffffffffffffffffffffffffffff1602179055506000600160146101000a81548167ffffffffffffffff021916908360070b67ffffffffffffffff1602179055505050610193565b6000815190506100f68161017c565b92915050565b6000806040838503121561010f57600080fd5b600061011d858286016100e7565b925050602061012e858286016100e7565b9150509250929050565b60006101438261015c565b9050919050565b600061015582610138565b9050919050565b600073ffffffffffffffffffffffffffffffffffffffff82169050919050565b6101858161014a565b811461019057600080fd5b50565b610975806101a26000396000f3fe608060405234801561001057600080fd5b50600436106100885760003560e01c8063902c995e1161005b578063902c995e1461012d578063c18dac4e14610149578063e377a2a314610167578063eabd082d1461018357610088565b806315d23fd91461008d578063417f3ca7146100ab5780634b69fd99146100df57806370e705861461010f575b600080fd5b6100956101a1565b6040516100a29190610686565b60405180910390f35b6100c560048036038101906100c0919061052d565b6101b4565b6040516100d69594939291906106d7565b60405180910390f35b6100f960048036038101906100f49190610556565b610334565b60405161010691906106bc565b60405180910390f35b61011761033f565b60405161012491906106a1565b60405180910390f35b6101476004803603810190610142919061052d565b610365565b005b610151610418565b60405161015e9190610738565b60405180910390f35b610181600480360381019061017c91906104f1565b61042b565b005b61018b61042f565b60405161019891906106a1565b60405180910390f35b6001601c9054906101000a900460ff1681565b60026020528060005260406000206000915090508060000160009054906101000a900460010b908060000160029054906101000a900460010b908060010180546101fd90610848565b80601f016020809104026020016040519081016040528092919081815260200182805461022990610848565b80156102765780601f1061024b57610100808354040283529160200191610276565b820191906000526020600020905b81548152906001019060200180831161025957829003601f168201915b50505050509080600201805461028b90610848565b80601f01602080910402602001604051908101604052809291908181526020018280546102b790610848565b80156103045780601f106102d957610100808354040283529160200191610304565b820191906000526020600020905b8154815290600101906020018083116102e757829003601f168201915b5050505050908060030160009054906101000a900473ffffffffffffffffffffffffffffffffffffffff16905085565b600095945050505050565b600160009054906101000a900473ffffffffffffffffffffffffffffffffffffffff1681565b6000600260008360070b60070b815260200190815260200160002090508060030160009054906101000a900473ffffffffffffffffffffffffffffffffffffffff1673ffffffffffffffffffffffffffffffffffffffff163373ffffffffffffffffffffffffffffffffffffffff1614610414576040517f08c379a000000000000000000000000000000000000000000000000000000000815260040161040b90610753565b60405180910390fd5b5050565b600160149054906101000a900460070b81565b5050565b60008054906101000a900473ffffffffffffffffffffffffffffffffffffffff1681565b600081359050610462816108e3565b92915050565b600081359050610477816108fa565b92915050565b60008135905061048c81610911565b92915050565b6000813590506104a181610928565b92915050565b60008083601f8401126104b957600080fd5b8235905067ffffffffffffffff8111156104d257600080fd5b6020830191508360018202830111156104ea57600080fd5b9250929050565b6000806040838503121561050457600080fd5b600061051285828601610468565b925050602061052385828601610453565b9150509250929050565b60006020828403121561053f57600080fd5b600061054d84828501610492565b91505092915050565b60008060008060006060868803121561056e57600080fd5b600086013567ffffffffffffffff81111561058857600080fd5b610594888289016104a7565b9550955050602086013567ffffffffffffffff8111156105b357600080fd5b6105bf888289016104a7565b935093505060406105d28882890161047d565b9150509295509295909350565b6105e88161078f565b82525050565b6105f7816107a1565b82525050565b610606816107f1565b82525050565b610615816107ad565b82525050565b610624816107c4565b82525050565b600061063582610773565b61063f818561077e565b935061064f818560208601610815565b610658816108a9565b840191505092915050565b6000610670600a8361077e565b915061067b826108ba565b602082019050919050565b600060208201905061069b60008301846105ee565b92915050565b60006020820190506106b660008301846105fd565b92915050565b60006020820190506106d1600083018461060c565b92915050565b600060a0820190506106ec600083018861060c565b6106f9602083018761060c565b818103604083015261070b818661062a565b9050818103606083015261071f818561062a565b905061072e60808301846105df565b9695505050505050565b600060208201905061074d600083018461061b565b92915050565b6000602082019050818103600083015261076c81610663565b9050919050565b600081519050919050565b600082825260208201905092915050565b600061079a826107d1565b9050919050565b60008115159050919050565b60008160010b9050919050565b6000819050919050565b60008160070b9050919050565b600073ffffffffffffffffffffffffffffffffffffffff82169050919050565b60006107fc82610803565b9050919050565b600061080e826107d1565b9050919050565b60005b83811015610833578082015181840152602081019050610818565b83811115610842576000848401525b50505050565b6000600282049050600182168061086057607f821691505b602082108114156108745761087361087a565b5b50919050565b7f4e487b7100000000000000000000000000000000000000000000000000000000600052602260045260246000fd5b6000601f19601f8301169050919050565b7f4e4f5420415554484f5200000000000000000000000000000000000000000000600082015250565b6108ec816107a1565b81146108f757600080fd5b50565b610903816107ad565b811461090e57600080fd5b50565b61091a816107ba565b811461092557600080fd5b50565b610931816107c4565b811461093c57600080fd5b5056fea2646970667358221220ec376fd21bdea1cb1d91dec9af80e5d84912e2ff3fe5f792317f16bc43f1d49064736f6c63430008040033",
  "linkReferences": {},
  "deployedLinkReferences": {}
}