{
  "_format": "hh-sol-artifact-1",
  "contractName": "TGV_Token",
  "sourceName": "contracts/GovToken.sol",
  "abi": [
    {
      "inputs": [],
      "stateMutability": "nonpayable",
      "type": "constructor"
    },
    {
      "anonymous": false,
      "inputs": [
        {
          "indexed": true,
          "internalType": "address",
          "name": "owner",
          "type": "address"
        },
        {
          "indexed": true,
          "internalType": "address",
          "name": "spender",
          "type": "address"
        },
        {
          "indexed": false,
          "internalType": "uint256",
          "name": "value",
          "type": "uint256"
        }
      ],
      "name": "Approval",
      "type": "event"
    },
    {
      "anonymous": false,
      "inputs": [
        {
          "indexed": true,
          "internalType": "address",
          "name": "delegator",
          "type": "address"
        },
        {
          "indexed": true,
          "internalType": "address",
          "name": "fromDelegate",
          "type": "address"
        },
        {
          "indexed": true,
          "internalType": "address",
          "name": "toDelegate",
          "type": "address"
        }
      ],
      "name": "DelegateChanged",
      "type": "event"
    },
    {
      "anonymous": false,
      "inputs": [
        {
          "indexed": true,
          "internalType": "address",
          "name": "delegate",
          "type": "address"
        },
        {
          "indexed": false,
          "internalType": "uint256",
          "name": "previousBalance",
          "type": "uint256"
        },
        {
          "indexed": false,
          "internalType": "uint256",
          "name": "newBalance",
          "type": "uint256"
        }
      ],
      "name": "DelegateVotesChanged",
      "type": "event"
    },
    {
      "anonymous": false,
      "inputs": [
        {
          "indexed": true,
          "internalType": "address",
          "name": "from",
          "type": "address"
        },
        {
          "indexed": true,
          "internalType": "address",
          "name": "to",
          "type": "address"
        },
        {
          "indexed": false,
          "internalType": "uint256",
          "name": "value",
          "type": "uint256"
        }
      ],
      "name": "Transfer",
      "type": "event"
    },
    {
      "inputs": [],
      "name": "DOMAIN_SEPARATOR",
      "outputs": [
        {
          "internalType": "bytes32",
          "name": "",
          "type": "bytes32"
        }
      ],
      "stateMutability": "view",
      "type": "function"
    },
    {
      "inputs": [
        {
          "internalType": "address",
          "name": "owner",
          "type": "address"
        },
        {
          "internalType": "address",
          "name": "spender",
          "type": "address"
        }
      ],
      "name": "allowance",
      "outputs": [
        {
          "internalType": "uint256",
          "name": "",
          "type": "uint256"
        }
      ],
      "stateMutability": "view",
      "type": "function"
    },
    {
      "inputs": [
        {
          "internalType": "address",
          "name": "spender",
          "type": "address"
        },
        {
          "internalType": "uint256",
          "name": "amount",
          "type": "uint256"
        }
      ],
      "name": "approve",
      "outputs": [
        {
          "internalType": "bool",
          "name": "",
          "type": "bool"
        }
      ],
      "stateMutability": "nonpayable",
      "type": "function"
    },
    {
      "inputs": [
        {
          "internalType": "address",
          "name": "account",
          "type": "address"
        }
      ],
      "name": "balanceOf",
      "outputs": [
        {
          "internalType": "uint256",
          "name": "",
          "type": "uint256"
        }
      ],
      "stateMutability": "view",
      "type": "function"
    },
    {
      "inputs": [
        {
          "internalType": "address",
          "name": "account",
          "type": "address"
        },
        {
          "internalType": "uint32",
          "name": "pos",
          "type": "uint32"
        }
      ],
      "name": "checkpoints",
      "outputs": [
        {
          "components": [
            {
              "internalType": "uint32",
              "name": "fromBlock",
              "type": "uint32"
            },
            {
              "internalType": "uint224",
              "name": "votes",
              "type": "uint224"
            }
          ],
          "internalType": "struct ERC20Votes.Checkpoint",
          "name": "",
          "type": "tuple"
        }
      ],
      "stateMutability": "view",
      "type": "function"
    },
    {
      "inputs": [],
      "name": "decimals",
      "outputs": [
        {
          "internalType": "uint8",
          "name": "",
          "type": "uint8"
        }
      ],
      "stateMutability": "view",
      "type": "function"
    },
    {
      "inputs": [
        {
          "internalType": "address",
          "name": "spender",
          "type": "address"
        },
        {
          "internalType": "uint256",
          "name": "subtractedValue",
          "type": "uint256"
        }
      ],
      "name": "decreaseAllowance",
      "outputs": [
        {
          "internalType": "bool",
          "name": "",
          "type": "bool"
        }
      ],
      "stateMutability": "nonpayable",
      "type": "function"
    },
    {
      "inputs": [
        {
          "internalType": "address",
          "name": "delegatee",
          "type": "address"
        }
      ],
      "name": "delegate",
      "outputs": [],
      "stateMutability": "nonpayable",
      "type": "function"
    },
    {
      "inputs": [
        {
          "internalType": "address",
          "name": "delegatee",
          "type": "address"
        },
        {
          "internalType": "uint256",
          "name": "nonce",
          "type": "uint256"
        },
        {
          "internalType": "uint256",
          "name": "expiry",
          "type": "uint256"
        },
        {
          "internalType": "uint8",
          "name": "v",
          "type": "uint8"
        },
        {
          "internalType": "bytes32",
          "name": "r",
          "type": "bytes32"
        },
        {
          "internalType": "bytes32",
          "name": "s",
          "type": "bytes32"
        }
      ],
      "name": "delegateBySig",
      "outputs": [],
      "stateMutability": "nonpayable",
      "type": "function"
    },
    {
      "inputs": [
        {
          "internalType": "address",
          "name": "account",
          "type": "address"
        }
      ],
      "name": "delegates",
      "outputs": [
        {
          "internalType": "address",
          "name": "",
          "type": "address"
        }
      ],
      "stateMutability": "view",
      "type": "function"
    },
    {
      "inputs": [
        {
          "internalType": "uint256",
          "name": "blockNumber",
          "type": "uint256"
        }
      ],
      "name": "getPastTotalSupply",
      "outputs": [
        {
          "internalType": "uint256",
          "name": "",
          "type": "uint256"
        }
      ],
      "stateMutability": "view",
      "type": "function"
    },
    {
      "inputs": [
        {
          "internalType": "address",
          "name": "account",
          "type": "address"
        },
        {
          "internalType": "uint256",
          "name": "blockNumber",
          "type": "uint256"
        }
      ],
      "name": "getPastVotes",
      "outputs": [
        {
          "internalType": "uint256",
          "name": "",
          "type": "uint256"
        }
      ],
      "stateMutability": "view",
      "type": "function"
    },
    {
      "inputs": [
        {
          "internalType": "address",
          "name": "account",
          "type": "address"
        }
      ],
      "name": "getVotes",
      "outputs": [
        {
          "internalType": "uint256",
          "name": "",
          "type": "uint256"
        }
      ],
      "stateMutability": "view",
      "type": "function"
    },
    {
      "inputs": [
        {
          "internalType": "address",
          "name": "spender",
          "type": "address"
        },
        {
          "internalType": "uint256",
          "name": "addedValue",
          "type": "uint256"
        }
      ],
      "name": "increaseAllowance",
      "outputs": [
        {
          "internalType": "bool",
          "name": "",
          "type": "bool"
        }
      ],
      "stateMutability": "nonpayable",
      "type": "function"
    },
    {
      "inputs": [],
      "name": "name",
      "outputs": [
        {
          "internalType": "string",
          "name": "",
          "type": "string"
        }
      ],
      "stateMutability": "view",
      "type": "function"
    },
    {
      "inputs": [
        {
          "internalType": "address",
          "name": "owner",
          "type": "address"
        }
      ],
      "name": "nonces",
      "outputs": [
        {
          "internalType": "uint256",
          "name": "",
          "type": "uint256"
        }
      ],
      "stateMutability": "view",
      "type": "function"
    },
    {
      "inputs": [
        {
          "internalType": "address",
          "name": "account",
          "type": "address"
        }
      ],
      "name": "numCheckpoints",
      "outputs": [
        {
          "internalType": "uint32",
          "name": "",
          "type": "uint32"
        }
      ],
      "stateMutability": "view",
      "type": "function"
    },
    {
      "inputs": [
        {
          "internalType": "address",
          "name": "owner",
          "type": "address"
        },
        {
          "internalType": "address",
          "name": "spender",
          "type": "address"
        },
        {
          "internalType": "uint256",
          "name": "value",
          "type": "uint256"
        },
        {
          "internalType": "uint256",
          "name": "deadline",
          "type": "uint256"
        },
        {
          "internalType": "uint8",
          "name": "v",
          "type": "uint8"
        },
        {
          "internalType": "bytes32",
          "name": "r",
          "type": "bytes32"
        },
        {
          "internalType": "bytes32",
          "name": "s",
          "type": "bytes32"
        }
      ],
      "name": "permit",
      "outputs": [],
      "stateMutability": "nonpayable",
      "type": "function"
    },
    {
      "inputs": [],
      "name": "symbol",
      "outputs": [
        {
          "internalType": "string",
          "name": "",
          "type": "string"
        }
      ],
      "stateMutability": "view",
      "type": "function"
    },
    {
      "inputs": [],
      "name": "totalSupply",
      "outputs": [
        {
          "internalType": "uint256",
          "name": "",
          "type": "uint256"
        }
      ],
      "stateMutability": "view",
      "type": "function"
    },
    {
      "inputs": [
        {
          "internalType": "address",
          "name": "to",
          "type": "address"
        },
        {
          "internalType": "uint256",
          "name": "amount",
          "type": "uint256"
        }
      ],
      "name": "transfer",
      "outputs": [
        {
          "internalType": "bool",
          "name": "",
          "type": "bool"
        }
      ],
      "stateMutability": "nonpayable",
      "type": "function"
    },
    {
      "inputs": [
        {
          "internalType": "address",
          "name": "from",
          "type": "address"
        },
        {
          "internalType": "address",
          "name": "to",
          "type": "address"
        },
        {
          "internalType": "uint256",
          "name": "amount",
          "type": "uint256"
        }
      ],
      "name": "transferFrom",
      "outputs": [
        {
          "internalType": "bool",
          "name": "",
          "type": "bool"
        }
      ],
      "stateMutability": "nonpayable",
      "type": "function"
    }
  ],
  "bytecode": "0x6101606040527f6e71edae12b1b97f4d1f60370fef10105fa2faae0126114a169c64845d6126c9610140908152503480156200003a57600080fd5b506040518060400160405280600981526020017f5447565f546f6b656e0000000000000000000000000000000000000000000000815250806040518060400160405280600181526020017f31000000000000000000000000000000000000000000000000000000000000008152506040518060400160405280601581526020017f5472656520476f7665726e616e636520546f6b656e00000000000000000000008152506040518060400160405280600381526020017f544756000000000000000000000000000000000000000000000000000000000081525081600390805190602001906200012c92919062000240565b5080600490805190602001906200014592919062000240565b50505060008280519060200120905060008280519060200120905060007f8b73c3c69bb8fe3d512ecc4cf759cc79239f7b179b0ffacaa9a75d522b39400f90508260e081815250508161010081815250504660a08181525050620001b18184846200020460201b60201c565b608081815250503073ffffffffffffffffffffffffffffffffffffffff1660c08173ffffffffffffffffffffffffffffffffffffffff1660601b815250508061012081815250505050505050506200042d565b600083838346306040516020016200022195949392919062000323565b6040516020818303038152906040528051906020012090509392505050565b8280546200024e90620003c8565b90600052602060002090601f016020900481019282620002725760008555620002be565b82601f106200028d57805160ff1916838001178555620002be565b82800160010185558215620002be579182015b82811115620002bd578251825591602001919060010190620002a0565b5b509050620002cd9190620002d1565b5090565b5b80821115620002ec576000816000905550600101620002d2565b5090565b620002fb8162000380565b82525050565b6200030c8162000394565b82525050565b6200031d81620003be565b82525050565b600060a0820190506200033a600083018862000301565b62000349602083018762000301565b62000358604083018662000301565b62000367606083018562000312565b620003766080830184620002f0565b9695505050505050565b60006200038d826200039e565b9050919050565b6000819050919050565b600073ffffffffffffffffffffffffffffffffffffffff82169050919050565b6000819050919050565b60006002820490506001821680620003e157607f821691505b60208210811415620003f857620003f7620003fe565b5b50919050565b7f4e487b7100000000000000000000000000000000000000000000000000000000600052602260045260246000fd5b60805160a05160c05160601c60e0516101005161012051610140516137096200048b6000396000610cf50152600061153b0152600061157d0152600061155c01526000611491015260006114e70152600061151001526137096000f3fe608060405234801561001057600080fd5b50600436106101425760003560e01c806370a08231116100b8578063a457c2d71161007c578063a457c2d7146103d9578063a9059cbb14610409578063c3cda52014610439578063d505accf14610455578063dd62ed3e14610471578063f1127ed8146104a157610142565b806370a08231146102fb5780637ecebe001461032b5780638e539e8c1461035b57806395d89b411461038b5780639ab24eb0146103a957610142565b80633644e5151161010a5780633644e51514610201578063395093511461021f5780633a46b1a81461024f578063587cde1e1461027f5780635c19a95c146102af5780636fcfff45146102cb57610142565b806306fdde0314610147578063095ea7b31461016557806318160ddd1461019557806323b872dd146101b3578063313ce567146101e3575b600080fd5b61014f6104d1565b60405161015c9190612c5c565b60405180910390f35b61017f600480360381019061017a91906125dc565b610563565b60405161018c9190612ae8565b60405180910390f35b61019d610586565b6040516101aa9190612ed9565b60405180910390f35b6101cd60048036038101906101c891906124ef565b610590565b6040516101da9190612ae8565b60405180910390f35b6101eb6105bf565b6040516101f89190612f38565b60405180910390f35b6102096105c8565b6040516102169190612b03565b60405180910390f35b610239600480360381019061023491906125dc565b6105d7565b6040516102469190612ae8565b60405180910390f35b610269600480360381019061026491906125dc565b610681565b6040516102769190612ed9565b60405180910390f35b6102996004803603810190610294919061248a565b610715565b6040516102a69190612acd565b60405180910390f35b6102c960048036038101906102c4919061248a565b61077e565b005b6102e560048036038101906102e0919061248a565b610792565b6040516102f29190612f1d565b60405180910390f35b6103156004803603810190610310919061248a565b6107e6565b6040516103229190612ed9565b60405180910390f35b6103456004803603810190610340919061248a565b61082e565b6040516103529190612ed9565b60405180910390f35b610375600480360381019061037091906126dd565b61087e565b6040516103829190612ed9565b60405180910390f35b6103936108d4565b6040516103a09190612c5c565b60405180910390f35b6103c360048036038101906103be919061248a565b610966565b6040516103d09190612ed9565b60405180910390f35b6103f360048036038101906103ee91906125dc565b610a9d565b6040516104009190612ae8565b60405180910390f35b610423600480360381019061041e91906125dc565b610b87565b6040516104309190612ae8565b60405180910390f35b610453600480360381019061044e9190612618565b610baa565b005b61046f600480360381019061046a919061253e565b610cae565b005b61048b600480360381019061048691906124b3565b610df0565b6040516104989190612ed9565b60405180910390f35b6104bb60048036038101906104b691906126a1565b610e77565b6040516104c89190612ebe565b60405180910390f35b6060600380546104e0906130ff565b80601f016020809104026020016040519081016040528092919081815260200182805461050c906130ff565b80156105595780601f1061052e57610100808354040283529160200191610559565b820191906000526020600020905b81548152906001019060200180831161053c57829003601f168201915b5050505050905090565b60008061056e610fad565b905061057b818585610fb5565b600191505092915050565b6000600254905090565b60008061059b610fad565b90506105a8858285611180565b6105b385858561120c565b60019150509392505050565b60006012905090565b60006105d261148d565b905090565b6000806105e2610fad565b9050610676818585600160008673ffffffffffffffffffffffffffffffffffffffff1673ffffffffffffffffffffffffffffffffffffffff16815260200190815260200160002060008973ffffffffffffffffffffffffffffffffffffffff1673ffffffffffffffffffffffffffffffffffffffff168152602001908152602001600020546106719190612f7a565b610fb5565b600191505092915050565b60004382106106c5576040517f08c379a00000000000000000000000000000000000000000000000000000000081526004016106bc90612cbe565b60405180910390fd5b61070d600760008573ffffffffffffffffffffffffffffffffffffffff1673ffffffffffffffffffffffffffffffffffffffff168152602001908152602001600020836115a7565b905092915050565b6000600660008373ffffffffffffffffffffffffffffffffffffffff1673ffffffffffffffffffffffffffffffffffffffff16815260200190815260200160002060009054906101000a900473ffffffffffffffffffffffffffffffffffffffff169050919050565b61078f610789610fad565b826116ff565b50565b60006107df600760008473ffffffffffffffffffffffffffffffffffffffff1673ffffffffffffffffffffffffffffffffffffffff16815260200190815260200160002080549050611819565b9050919050565b60008060008373ffffffffffffffffffffffffffffffffffffffff1673ffffffffffffffffffffffffffffffffffffffff168152602001908152602001600020549050919050565b6000610877600560008473ffffffffffffffffffffffffffffffffffffffff1673ffffffffffffffffffffffffffffffffffffffff16815260200190815260200160002061186c565b9050919050565b60004382106108c2576040517f08c379a00000000000000000000000000000000000000000000000000000000081526004016108b990612cbe565b60405180910390fd5b6108cd6008836115a7565b9050919050565b6060600480546108e3906130ff565b80601f016020809104026020016040519081016040528092919081815260200182805461090f906130ff565b801561095c5780601f106109315761010080835404028352916020019161095c565b820191906000526020600020905b81548152906001019060200180831161093f57829003601f168201915b5050505050905090565b600080600760008473ffffffffffffffffffffffffffffffffffffffff1673ffffffffffffffffffffffffffffffffffffffff16815260200190815260200160002080549050905060008114610a7457600760008473ffffffffffffffffffffffffffffffffffffffff1673ffffffffffffffffffffffffffffffffffffffff168152602001908152602001600020600182610a029190613001565b81548110610a39577f4e487b7100000000000000000000000000000000000000000000000000000000600052603260045260246000fd5b9060005260206000200160000160049054906101000a90047bffffffffffffffffffffffffffffffffffffffffffffffffffffffff16610a77565b60005b7bffffffffffffffffffffffffffffffffffffffffffffffffffffffff16915050919050565b600080610aa8610fad565b90506000600160008373ffffffffffffffffffffffffffffffffffffffff1673ffffffffffffffffffffffffffffffffffffffff16815260200190815260200160002060008673ffffffffffffffffffffffffffffffffffffffff1673ffffffffffffffffffffffffffffffffffffffff16815260200190815260200160002054905083811015610b6e576040517f08c379a0000000000000000000000000000000000000000000000000000000008152600401610b6590612e9e565b60405180910390fd5b610b7b8286868403610fb5565b60019250505092915050565b600080610b92610fad565b9050610b9f81858561120c565b600191505092915050565b83421115610bed576040517f08c379a0000000000000000000000000000000000000000000000000000000008152600401610be490612cde565b60405180910390fd5b6000610c4f610c477fe48329057bfd03d55e49b547132e39cffd9c1820ad7b9d4c5307691425d15adf898989604051602001610c2c9493929190612b7f565b6040516020818303038152906040528051906020012061187a565b858585611894565b9050610c5a816118bf565b8614610c9b576040517f08c379a0000000000000000000000000000000000000000000000000000000008152600401610c9290612d1e565b60405180910390fd5b610ca581886116ff565b50505050505050565b83421115610cf1576040517f08c379a0000000000000000000000000000000000000000000000000000000008152600401610ce890612d7e565b60405180910390fd5b60007f0000000000000000000000000000000000000000000000000000000000000000888888610d208c6118bf565b89604051602001610d3696959493929190612b1e565b6040516020818303038152906040528051906020012090506000610d598261187a565b90506000610d6982878787611894565b90508973ffffffffffffffffffffffffffffffffffffffff168173ffffffffffffffffffffffffffffffffffffffff1614610dd9576040517f08c379a0000000000000000000000000000000000000000000000000000000008152600401610dd090612dfe565b60405180910390fd5b610de48a8a8a610fb5565b50505050505050505050565b6000600160008473ffffffffffffffffffffffffffffffffffffffff1673ffffffffffffffffffffffffffffffffffffffff16815260200190815260200160002060008373ffffffffffffffffffffffffffffffffffffffff1673ffffffffffffffffffffffffffffffffffffffff16815260200190815260200160002054905092915050565b610e7f6123e3565b600760008473ffffffffffffffffffffffffffffffffffffffff1673ffffffffffffffffffffffffffffffffffffffff1681526020019081526020016000208263ffffffff1681548110610efc577f4e487b7100000000000000000000000000000000000000000000000000000000600052603260045260246000fd5b906000526020600020016040518060400160405290816000820160009054906101000a900463ffffffff1663ffffffff1663ffffffff1681526020016000820160049054906101000a90047bffffffffffffffffffffffffffffffffffffffffffffffffffffffff167bffffffffffffffffffffffffffffffffffffffffffffffffffffffff167bffffffffffffffffffffffffffffffffffffffffffffffffffffffff1681525050905092915050565b600033905090565b600073ffffffffffffffffffffffffffffffffffffffff168373ffffffffffffffffffffffffffffffffffffffff161415611025576040517f08c379a000000000000000000000000000000000000000000000000000000000815260040161101c90612e7e565b60405180910390fd5b600073ffffffffffffffffffffffffffffffffffffffff168273ffffffffffffffffffffffffffffffffffffffff161415611095576040517f08c379a000000000000000000000000000000000000000000000000000000000815260040161108c90612d3e565b60405180910390fd5b80600160008573ffffffffffffffffffffffffffffffffffffffff1673ffffffffffffffffffffffffffffffffffffffff16815260200190815260200160002060008473ffffffffffffffffffffffffffffffffffffffff1673ffffffffffffffffffffffffffffffffffffffff168152602001908152602001600020819055508173ffffffffffffffffffffffffffffffffffffffff168373ffffffffffffffffffffffffffffffffffffffff167f8c5be1e5ebec7d5bd14f71427d1e84f3dd0314c0f7b2291e5b200ac8c7c3b925836040516111739190612ed9565b60405180910390a3505050565b600061118c8484610df0565b90507fffffffffffffffffffffffffffffffffffffffffffffffffffffffffffffffff811461120657818110156111f8576040517f08c379a00000000000000000000000000000000000000000000000000000000081526004016111ef90612d5e565b60405180910390fd5b6112058484848403610fb5565b5b50505050565b600073ffffffffffffffffffffffffffffffffffffffff168373ffffffffffffffffffffffffffffffffffffffff16141561127c576040517f08c379a000000000000000000000000000000000000000000000000000000000815260040161127390612e3e565b60405180910390fd5b600073ffffffffffffffffffffffffffffffffffffffff168273ffffffffffffffffffffffffffffffffffffffff1614156112ec576040517f08c379a00000000000000000000000000000000000000000000000000000000081526004016112e390612c9e565b60405180910390fd5b6112f783838361191d565b60008060008573ffffffffffffffffffffffffffffffffffffffff1673ffffffffffffffffffffffffffffffffffffffff1681526020019081526020016000205490508181101561137d576040517f08c379a000000000000000000000000000000000000000000000000000000000815260040161137490612d9e565b60405180910390fd5b8181036000808673ffffffffffffffffffffffffffffffffffffffff1673ffffffffffffffffffffffffffffffffffffffff16815260200190815260200160002081905550816000808573ffffffffffffffffffffffffffffffffffffffff1673ffffffffffffffffffffffffffffffffffffffff16815260200190815260200160002060008282546114109190612f7a565b925050819055508273ffffffffffffffffffffffffffffffffffffffff168473ffffffffffffffffffffffffffffffffffffffff167fddf252ad1be2c89b69c2b068fc378daa952ba7f163c4a11628f55a4df523b3ef846040516114749190612ed9565b60405180910390a3611487848484611922565b50505050565b60007f000000000000000000000000000000000000000000000000000000000000000073ffffffffffffffffffffffffffffffffffffffff163073ffffffffffffffffffffffffffffffffffffffff1614801561150957507f000000000000000000000000000000000000000000000000000000000000000046145b15611536577f000000000000000000000000000000000000000000000000000000000000000090506115a4565b6115a17f00000000000000000000000000000000000000000000000000000000000000007f00000000000000000000000000000000000000000000000000000000000000007f0000000000000000000000000000000000000000000000000000000000000000611932565b90505b90565b6000808380549050905060005b8181101561164c5760006115c8828461196c565b905084868281548110611604577f4e487b7100000000000000000000000000000000000000000000000000000000600052603260045260246000fd5b9060005260206000200160000160009054906101000a900463ffffffff1663ffffffff16111561163657809250611646565b6001816116439190612f7a565b91505b506115b4565b600082146116d457846001836116629190613001565b81548110611699577f4e487b7100000000000000000000000000000000000000000000000000000000600052603260045260246000fd5b9060005260206000200160000160049054906101000a90047bffffffffffffffffffffffffffffffffffffffffffffffffffffffff166116d7565b60005b7bffffffffffffffffffffffffffffffffffffffffffffffffffffffff169250505092915050565b600061170a83610715565b90506000611717846107e6565b905082600660008673ffffffffffffffffffffffffffffffffffffffff1673ffffffffffffffffffffffffffffffffffffffff16815260200190815260200160002060006101000a81548173ffffffffffffffffffffffffffffffffffffffff021916908373ffffffffffffffffffffffffffffffffffffffff1602179055508273ffffffffffffffffffffffffffffffffffffffff168273ffffffffffffffffffffffffffffffffffffffff168573ffffffffffffffffffffffffffffffffffffffff167f3134e8a2e6d97e929a7e54011ea5485d7d196dd5f0ba4d4ef95803e8e3fc257f60405160405180910390a4611813828483611992565b50505050565b600063ffffffff8016821115611864576040517f08c379a000000000000000000000000000000000000000000000000000000000815260040161185b90612e5e565b60405180910390fd5b819050919050565b600081600001549050919050565b600061188d61188761148d565b83611b8b565b9050919050565b60008060006118a587878787611bbe565b915091506118b281611ccb565b8192505050949350505050565b600080600560008473ffffffffffffffffffffffffffffffffffffffff1673ffffffffffffffffffffffffffffffffffffffff168152602001908152602001600020905061190c8161186c565b91506119178161201c565b50919050565b505050565b61192d838383612032565b505050565b6000838383463060405160200161194d959493929190612bc4565b6040516020818303038152906040528051906020012090509392505050565b6000600282841861197d9190612fd0565b82841661198a9190612f7a565b905092915050565b8173ffffffffffffffffffffffffffffffffffffffff168373ffffffffffffffffffffffffffffffffffffffff16141580156119ce5750600081115b15611b8657600073ffffffffffffffffffffffffffffffffffffffff168373ffffffffffffffffffffffffffffffffffffffff1614611aac57600080611a55600760008773ffffffffffffffffffffffffffffffffffffffff1673ffffffffffffffffffffffffffffffffffffffff16815260200190815260200160002061205d85612073565b915091508473ffffffffffffffffffffffffffffffffffffffff167fdec2bacdd2f05b59de34da9b523dff8be42e5e38e818c82fdb0bae774387a7248383604051611aa1929190612ef4565b60405180910390a250505b600073ffffffffffffffffffffffffffffffffffffffff168273ffffffffffffffffffffffffffffffffffffffff1614611b8557600080611b2e600760008673ffffffffffffffffffffffffffffffffffffffff1673ffffffffffffffffffffffffffffffffffffffff16815260200190815260200160002061235d85612073565b915091508373ffffffffffffffffffffffffffffffffffffffff167fdec2bacdd2f05b59de34da9b523dff8be42e5e38e818c82fdb0bae774387a7248383604051611b7a929190612ef4565b60405180910390a250505b5b505050565b60008282604051602001611ba0929190612a96565b60405160208183030381529060405280519060200120905092915050565b6000807f7fffffffffffffffffffffffffffffff5d576e7357a4501ddfe92f46681b20a08360001c1115611bf9576000600391509150611cc2565b601b8560ff1614158015611c115750601c8560ff1614155b15611c23576000600491509150611cc2565b600060018787878760405160008152602001604052604051611c489493929190612c17565b6020604051602081039080840390855afa158015611c6a573d6000803e3d6000fd5b505050602060405103519050600073ffffffffffffffffffffffffffffffffffffffff168173ffffffffffffffffffffffffffffffffffffffff161415611cb957600060019250925050611cc2565b80600092509250505b94509492505050565b60006004811115611d05577f4e487b7100000000000000000000000000000000000000000000000000000000600052602160045260246000fd5b816004811115611d3e577f4e487b7100000000000000000000000000000000000000000000000000000000600052602160045260246000fd5b1415611d4957612019565b60016004811115611d83577f4e487b7100000000000000000000000000000000000000000000000000000000600052602160045260246000fd5b816004811115611dbc577f4e487b7100000000000000000000000000000000000000000000000000000000600052602160045260246000fd5b1415611dfd576040517f08c379a0000000000000000000000000000000000000000000000000000000008152600401611df490612c7e565b60405180910390fd5b60026004811115611e37577f4e487b7100000000000000000000000000000000000000000000000000000000600052602160045260246000fd5b816004811115611e70577f4e487b7100000000000000000000000000000000000000000000000000000000600052602160045260246000fd5b1415611eb1576040517f08c379a0000000000000000000000000000000000000000000000000000000008152600401611ea890612cfe565b60405180910390fd5b60036004811115611eeb577f4e487b7100000000000000000000000000000000000000000000000000000000600052602160045260246000fd5b816004811115611f24577f4e487b7100000000000000000000000000000000000000000000000000000000600052602160045260246000fd5b1415611f65576040517f08c379a0000000000000000000000000000000000000000000000000000000008152600401611f5c90612dbe565b60405180910390fd5b600480811115611f9e577f4e487b7100000000000000000000000000000000000000000000000000000000600052602160045260246000fd5b816004811115611fd7577f4e487b7100000000000000000000000000000000000000000000000000000000600052602160045260246000fd5b1415612018576040517f08c379a000000000000000000000000000000000000000000000000000000000815260040161200f90612dde565b60405180910390fd5b5b50565b6001816000016000828254019250508190555050565b61203d838383612373565b61205861204984610715565b61205284610715565b83611992565b505050565b6000818361206b9190613001565b905092915050565b6000806000858054905090506000811461210757856001826120959190613001565b815481106120cc577f4e487b7100000000000000000000000000000000000000000000000000000000600052603260045260246000fd5b9060005260206000200160000160049054906101000a90047bffffffffffffffffffffffffffffffffffffffffffffffffffffffff1661210a565b60005b7bffffffffffffffffffffffffffffffffffffffffffffffffffffffff16925061213883858763ffffffff16565b91506000811180156121b1575043866001836121549190613001565b8154811061218b577f4e487b7100000000000000000000000000000000000000000000000000000000600052603260045260246000fd5b9060005260206000200160000160009054906101000a900463ffffffff1663ffffffff16145b15612264576121bf82612378565b866001836121cd9190613001565b81548110612204577f4e487b7100000000000000000000000000000000000000000000000000000000600052603260045260246000fd5b9060005260206000200160000160046101000a8154817bffffffffffffffffffffffffffffffffffffffffffffffffffffffff02191690837bffffffffffffffffffffffffffffffffffffffffffffffffffffffff160217905550612354565b85604051806040016040528061227943611819565b63ffffffff16815260200161228d85612378565b7bffffffffffffffffffffffffffffffffffffffffffffffffffffffff168152509080600181540180825580915050600190039060005260206000200160009091909190915060008201518160000160006101000a81548163ffffffff021916908363ffffffff16021790555060208201518160000160046101000a8154817bffffffffffffffffffffffffffffffffffffffffffffffffffffffff02191690837bffffffffffffffffffffffffffffffffffffffffffffffffffffffff16021790555050505b50935093915050565b6000818361236b9190612f7a565b905092915050565b505050565b60007bffffffffffffffffffffffffffffffffffffffffffffffffffffffff80168211156123db576040517f08c379a00000000000000000000000000000000000000000000000000000000081526004016123d290612e1e565b60405180910390fd5b819050919050565b6040518060400160405280600063ffffffff16815260200160007bffffffffffffffffffffffffffffffffffffffffffffffffffffffff1681525090565b60008135905061243081613660565b92915050565b60008135905061244581613677565b92915050565b60008135905061245a8161368e565b92915050565b60008135905061246f816136a5565b92915050565b600081359050612484816136bc565b92915050565b60006020828403121561249c57600080fd5b60006124aa84828501612421565b91505092915050565b600080604083850312156124c657600080fd5b60006124d485828601612421565b92505060206124e585828601612421565b9150509250929050565b60008060006060848603121561250457600080fd5b600061251286828701612421565b935050602061252386828701612421565b92505060406125348682870161244b565b9150509250925092565b600080600080600080600060e0888a03121561255957600080fd5b60006125678a828b01612421565b97505060206125788a828b01612421565b96505060406125898a828b0161244b565b955050606061259a8a828b0161244b565b94505060806125ab8a828b01612475565b93505060a06125bc8a828b01612436565b92505060c06125cd8a828b01612436565b91505092959891949750929550565b600080604083850312156125ef57600080fd5b60006125fd85828601612421565b925050602061260e8582860161244b565b9150509250929050565b60008060008060008060c0878903121561263157600080fd5b600061263f89828a01612421565b965050602061265089828a0161244b565b955050604061266189828a0161244b565b945050606061267289828a01612475565b935050608061268389828a01612436565b92505060a061269489828a01612436565b9150509295509295509295565b600080604083850312156126b457600080fd5b60006126c285828601612421565b92505060206126d385828601612460565b9150509250929050565b6000602082840312156126ef57600080fd5b60006126fd8482850161244b565b91505092915050565b61270f81613035565b82525050565b61271e81613047565b82525050565b61272d81613053565b82525050565b61274461273f82613053565b613131565b82525050565b600061275582612f53565b61275f8185612f5e565b935061276f8185602086016130cc565b612778816131c8565b840191505092915050565b6000612790601883612f5e565b915061279b826131d9565b602082019050919050565b60006127b3602383612f5e565b91506127be82613202565b604082019050919050565b60006127d6601f83612f5e565b91506127e182613251565b602082019050919050565b60006127f9601d83612f5e565b91506128048261327a565b602082019050919050565b600061281c601f83612f5e565b9150612827826132a3565b602082019050919050565b600061283f601983612f5e565b915061284a826132cc565b602082019050919050565b6000612862602283612f5e565b915061286d826132f5565b604082019050919050565b6000612885600283612f6f565b915061289082613344565b600282019050919050565b60006128a8601d83612f5e565b91506128b38261336d565b602082019050919050565b60006128cb601d83612f5e565b91506128d682613396565b602082019050919050565b60006128ee602683612f5e565b91506128f9826133bf565b604082019050919050565b6000612911602283612f5e565b915061291c8261340e565b604082019050919050565b6000612934602283612f5e565b915061293f8261345d565b604082019050919050565b6000612957601e83612f5e565b9150612962826134ac565b602082019050919050565b600061297a602783612f5e565b9150612985826134d5565b604082019050919050565b600061299d602583612f5e565b91506129a882613524565b604082019050919050565b60006129c0602683612f5e565b91506129cb82613573565b604082019050919050565b60006129e3602483612f5e565b91506129ee826135c2565b604082019050919050565b6000612a06602583612f5e565b9150612a1182613611565b604082019050919050565b604082016000820151612a326000850182612a69565b506020820151612a456020850182612a4b565b50505050565b612a548161307d565b82525050565b612a63816130a5565b82525050565b612a72816130af565b82525050565b612a81816130af565b82525050565b612a90816130bf565b82525050565b6000612aa182612878565b9150612aad8285612733565b602082019150612abd8284612733565b6020820191508190509392505050565b6000602082019050612ae26000830184612706565b92915050565b6000602082019050612afd6000830184612715565b92915050565b6000602082019050612b186000830184612724565b92915050565b600060c082019050612b336000830189612724565b612b406020830188612706565b612b4d6040830187612706565b612b5a6060830186612a5a565b612b676080830185612a5a565b612b7460a0830184612a5a565b979650505050505050565b6000608082019050612b946000830187612724565b612ba16020830186612706565b612bae6040830185612a5a565b612bbb6060830184612a5a565b95945050505050565b600060a082019050612bd96000830188612724565b612be66020830187612724565b612bf36040830186612724565b612c006060830185612a5a565b612c0d6080830184612706565b9695505050505050565b6000608082019050612c2c6000830187612724565b612c396020830186612a87565b612c466040830185612724565b612c536060830184612724565b95945050505050565b60006020820190508181036000830152612c76818461274a565b905092915050565b60006020820190508181036000830152612c9781612783565b9050919050565b60006020820190508181036000830152612cb7816127a6565b9050919050565b60006020820190508181036000830152612cd7816127c9565b9050919050565b60006020820190508181036000830152612cf7816127ec565b9050919050565b60006020820190508181036000830152612d178161280f565b9050919050565b60006020820190508181036000830152612d3781612832565b9050919050565b60006020820190508181036000830152612d5781612855565b9050919050565b60006020820190508181036000830152612d778161289b565b9050919050565b60006020820190508181036000830152612d97816128be565b9050919050565b60006020820190508181036000830152612db7816128e1565b9050919050565b60006020820190508181036000830152612dd781612904565b9050919050565b60006020820190508181036000830152612df781612927565b9050919050565b60006020820190508181036000830152612e178161294a565b9050919050565b60006020820190508181036000830152612e378161296d565b9050919050565b60006020820190508181036000830152612e5781612990565b9050919050565b60006020820190508181036000830152612e77816129b3565b9050919050565b60006020820190508181036000830152612e97816129d6565b9050919050565b60006020820190508181036000830152612eb7816129f9565b9050919050565b6000604082019050612ed36000830184612a1c565b92915050565b6000602082019050612eee6000830184612a5a565b92915050565b6000604082019050612f096000830185612a5a565b612f166020830184612a5a565b9392505050565b6000602082019050612f326000830184612a78565b92915050565b6000602082019050612f4d6000830184612a87565b92915050565b600081519050919050565b600082825260208201905092915050565b600081905092915050565b6000612f85826130a5565b9150612f90836130a5565b9250827fffffffffffffffffffffffffffffffffffffffffffffffffffffffffffffffff03821115612fc557612fc461313b565b5b828201905092915050565b6000612fdb826130a5565b9150612fe6836130a5565b925082612ff657612ff561316a565b5b828204905092915050565b600061300c826130a5565b9150613017836130a5565b92508282101561302a5761302961313b565b5b828203905092915050565b60006130408261305d565b9050919050565b60008115159050919050565b6000819050919050565b600073ffffffffffffffffffffffffffffffffffffffff82169050919050565b60007bffffffffffffffffffffffffffffffffffffffffffffffffffffffff82169050919050565b6000819050919050565b600063ffffffff82169050919050565b600060ff82169050919050565b60005b838110156130ea5780820151818401526020810190506130cf565b838111156130f9576000848401525b50505050565b6000600282049050600182168061311757607f821691505b6020821081141561312b5761312a613199565b5b50919050565b6000819050919050565b7f4e487b7100000000000000000000000000000000000000000000000000000000600052601160045260246000fd5b7f4e487b7100000000000000000000000000000000000000000000000000000000600052601260045260246000fd5b7f4e487b7100000000000000000000000000000000000000000000000000000000600052602260045260246000fd5b6000601f19601f8301169050919050565b7f45434453413a20696e76616c6964207369676e61747572650000000000000000600082015250565b7f45524332303a207472616e7366657220746f20746865207a65726f206164647260008201527f6573730000000000000000000000000000000000000000000000000000000000602082015250565b7f4552433230566f7465733a20626c6f636b206e6f7420796574206d696e656400600082015250565b7f4552433230566f7465733a207369676e61747572652065787069726564000000600082015250565b7f45434453413a20696e76616c6964207369676e6174757265206c656e67746800600082015250565b7f4552433230566f7465733a20696e76616c6964206e6f6e636500000000000000600082015250565b7f45524332303a20617070726f766520746f20746865207a65726f20616464726560008201527f7373000000000000000000000000000000000000000000000000000000000000602082015250565b7f1901000000000000000000000000000000000000000000000000000000000000600082015250565b7f45524332303a20696e73756666696369656e7420616c6c6f77616e6365000000600082015250565b7f45524332305065726d69743a206578706972656420646561646c696e65000000600082015250565b7f45524332303a207472616e7366657220616d6f756e742065786365656473206260008201527f616c616e63650000000000000000000000000000000000000000000000000000602082015250565b7f45434453413a20696e76616c6964207369676e6174757265202773272076616c60008201527f7565000000000000000000000000000000000000000000000000000000000000602082015250565b7f45434453413a20696e76616c6964207369676e6174757265202776272076616c60008201527f7565000000000000000000000000000000000000000000000000000000000000602082015250565b7f45524332305065726d69743a20696e76616c6964207369676e61747572650000600082015250565b7f53616665436173743a2076616c756520646f65736e27742066697420696e203260008201527f3234206269747300000000000000000000000000000000000000000000000000602082015250565b7f45524332303a207472616e736665722066726f6d20746865207a65726f20616460008201527f6472657373000000000000000000000000000000000000000000000000000000602082015250565b7f53616665436173743a2076616c756520646f65736e27742066697420696e203360008201527f3220626974730000000000000000000000000000000000000000000000000000602082015250565b7f45524332303a20617070726f76652066726f6d20746865207a65726f2061646460008201527f7265737300000000000000000000000000000000000000000000000000000000602082015250565b7f45524332303a2064656372656173656420616c6c6f77616e63652062656c6f7760008201527f207a65726f000000000000000000000000000000000000000000000000000000602082015250565b61366981613035565b811461367457600080fd5b50565b61368081613053565b811461368b57600080fd5b50565b613697816130a5565b81146136a257600080fd5b50565b6136ae816130af565b81146136b957600080fd5b50565b6136c5816130bf565b81146136d057600080fd5b5056fea26469706673582212206cb6b120d0b5a85288826b1a22e5920f0dd9b328a295a3dbcea9480822efe11c64736f6c63430008040033",
  "linkReferences": {},
  "deployedLinkReferences": {}
}